{
  "contractName": "Allowance",
  "abi": [
    {
      "anonymous": false,
      "inputs": [
        {
          "indexed": true,
          "internalType": "address",
          "name": "to",
          "type": "address"
        },
        {
          "indexed": false,
          "internalType": "uint256",
          "name": "oldAmount",
          "type": "uint256"
        },
        {
          "indexed": false,
          "internalType": "uint256",
          "name": "newAmount",
          "type": "uint256"
        }
      ],
      "name": "AllowanceChaged",
      "type": "event"
    },
    {
      "anonymous": false,
      "inputs": [
        {
          "indexed": true,
          "internalType": "address",
          "name": "user",
          "type": "address"
        }
      ],
      "name": "AllowanceRemoved",
      "type": "event"
    },
    {
      "anonymous": false,
      "inputs": [
        {
          "indexed": true,
          "internalType": "address",
          "name": "previousOwner",
          "type": "address"
        },
        {
          "indexed": true,
          "internalType": "address",
          "name": "newOwner",
          "type": "address"
        }
      ],
      "name": "OwnershipTransferred",
      "type": "event"
    },
    {
      "inputs": [],
      "name": "owner",
      "outputs": [
        {
          "internalType": "address",
          "name": "",
          "type": "address"
        }
      ],
      "stateMutability": "view",
      "type": "function"
    },
    {
      "inputs": [],
      "name": "renounceOwnership",
      "outputs": [],
      "stateMutability": "nonpayable",
      "type": "function"
    },
    {
      "inputs": [
        {
          "internalType": "address",
          "name": "newOwner",
          "type": "address"
        }
      ],
      "name": "transferOwnership",
      "outputs": [],
      "stateMutability": "nonpayable",
      "type": "function"
    },
    {
      "inputs": [
        {
          "internalType": "address",
          "name": "newUser",
          "type": "address"
        },
        {
          "internalType": "uint256",
          "name": "amount",
          "type": "uint256"
        }
      ],
      "name": "addAllowance",
      "outputs": [],
      "stateMutability": "nonpayable",
      "type": "function"
    },
    {
      "inputs": [
        {
          "internalType": "address",
          "name": "user",
          "type": "address"
        }
      ],
      "name": "removeAllowance",
      "outputs": [],
      "stateMutability": "nonpayable",
      "type": "function"
    }
  ],
  "bytecode": "0x608060405234801561001057600080fd5b5061002d61002261003260201b60201c565b61003a60201b60201c565b6100fe565b600033905090565b60008060009054906101000a900473ffffffffffffffffffffffffffffffffffffffff169050816000806101000a81548173ffffffffffffffffffffffffffffffffffffffff021916908373ffffffffffffffffffffffffffffffffffffffff1602179055508173ffffffffffffffffffffffffffffffffffffffff168173ffffffffffffffffffffffffffffffffffffffff167f8be0079c531659141344cd1fd0a4f28419497f9722a3daafe3b4186f6b6457e060405160405180910390a35050565b6109678061010d6000396000f3fe608060405234801561001057600080fd5b50600436106100575760003560e01c8063715018a61461005c5780638af86cfa146100665780638da5cb5b14610082578063f2fde38b146100a0578063f3c40c4b146100bc575b600080fd5b6100646100d8565b005b610080600480360381019061007b9190610664565b610160565b005b61008a610265565b60405161009791906106a0565b60405180910390f35b6100ba60048036038101906100b59190610664565b61028e565b005b6100d660048036038101906100d191906106f1565b610386565b005b6100e0610535565b73ffffffffffffffffffffffffffffffffffffffff166100fe610265565b73ffffffffffffffffffffffffffffffffffffffff1614610154576040517f08c379a000000000000000000000000000000000000000000000000000000000815260040161014b9061078e565b60405180910390fd5b61015e600061053d565b565b610168610535565b73ffffffffffffffffffffffffffffffffffffffff16610186610265565b73ffffffffffffffffffffffffffffffffffffffff16146101dc576040517f08c379a00000000000000000000000000000000000000000000000000000000081526004016101d39061078e565b60405180910390fd5b600160008273ffffffffffffffffffffffffffffffffffffffff1673ffffffffffffffffffffffffffffffffffffffff168152602001908152602001600020600090558073ffffffffffffffffffffffffffffffffffffffff167f7de497603c764b359ceb3c7c4f5519836410e3921f417efd781009722081934f60405160405180910390a250565b60008060009054906101000a900473ffffffffffffffffffffffffffffffffffffffff16905090565b610296610535565b73ffffffffffffffffffffffffffffffffffffffff166102b4610265565b73ffffffffffffffffffffffffffffffffffffffff161461030a576040517f08c379a00000000000000000000000000000000000000000000000000000000081526004016103019061078e565b60405180910390fd5b600073ffffffffffffffffffffffffffffffffffffffff168173ffffffffffffffffffffffffffffffffffffffff16141561037a576040517f08c379a000000000000000000000000000000000000000000000000000000000815260040161037190610820565b60405180910390fd5b6103838161053d565b50565b61038e610535565b73ffffffffffffffffffffffffffffffffffffffff166103ac610265565b73ffffffffffffffffffffffffffffffffffffffff1614610402576040517f08c379a00000000000000000000000000000000000000000000000000000000081526004016103f99061078e565b60405180910390fd5b80600160008473ffffffffffffffffffffffffffffffffffffffff1673ffffffffffffffffffffffffffffffffffffffff1681526020019081526020016000206000828254610451919061086f565b925050819055508173ffffffffffffffffffffffffffffffffffffffff167ffd06928e179c520b4c7796263043c3bebc4e65c3d2ac5fc944f422323fec85a482600160008673ffffffffffffffffffffffffffffffffffffffff1673ffffffffffffffffffffffffffffffffffffffff168152602001908152602001600020546104db91906108c5565b600160008673ffffffffffffffffffffffffffffffffffffffff1673ffffffffffffffffffffffffffffffffffffffff16815260200190815260200160002054604051610529929190610908565b60405180910390a25050565b600033905090565b60008060009054906101000a900473ffffffffffffffffffffffffffffffffffffffff169050816000806101000a81548173ffffffffffffffffffffffffffffffffffffffff021916908373ffffffffffffffffffffffffffffffffffffffff1602179055508173ffffffffffffffffffffffffffffffffffffffff168173ffffffffffffffffffffffffffffffffffffffff167f8be0079c531659141344cd1fd0a4f28419497f9722a3daafe3b4186f6b6457e060405160405180910390a35050565b600080fd5b600073ffffffffffffffffffffffffffffffffffffffff82169050919050565b600061063182610606565b9050919050565b61064181610626565b811461064c57600080fd5b50565b60008135905061065e81610638565b92915050565b60006020828403121561067a57610679610601565b5b60006106888482850161064f565b91505092915050565b61069a81610626565b82525050565b60006020820190506106b56000830184610691565b92915050565b6000819050919050565b6106ce816106bb565b81146106d957600080fd5b50565b6000813590506106eb816106c5565b92915050565b6000806040838503121561070857610707610601565b5b60006107168582860161064f565b9250506020610727858286016106dc565b9150509250929050565b600082825260208201905092915050565b7f4f776e61626c653a2063616c6c6572206973206e6f7420746865206f776e6572600082015250565b6000610778602083610731565b915061078382610742565b602082019050919050565b600060208201905081810360008301526107a78161076b565b9050919050565b7f4f776e61626c653a206e6577206f776e657220697320746865207a65726f206160008201527f6464726573730000000000000000000000000000000000000000000000000000602082015250565b600061080a602683610731565b9150610815826107ae565b604082019050919050565b60006020820190508181036000830152610839816107fd565b9050919050565b7f4e487b7100000000000000000000000000000000000000000000000000000000600052601160045260246000fd5b600061087a826106bb565b9150610885836106bb565b9250827fffffffffffffffffffffffffffffffffffffffffffffffffffffffffffffffff038211156108ba576108b9610840565b5b828201905092915050565b60006108d0826106bb565b91506108db836106bb565b9250828210156108ee576108ed610840565b5b828203905092915050565b610902816106bb565b82525050565b600060408201905061091d60008301856108f9565b61092a60208301846108f9565b939250505056fea2646970667358221220ba60089b2057a23fa634a04f52f89bf98098f04ebc9279bf778feb1bdfe8ccc464736f6c634300080a0033",
  "immutableReferences": {},
  "source": "// SPDX-License-Identifier: MIT\npragma solidity ^0.8.0;\n\nimport \"@openzeppelin/contracts/access/Ownable.sol\";\n\ncontract Allowance is Ownable {\n    mapping(address => uint256) allowance;\n    event AllowanceChaged(\n        address indexed to,\n        uint256 oldAmount,\n        uint256 newAmount\n    );\n    event AllowanceRemoved(address indexed user);\n\n    modifier isOwnerOrAllowed(uint256 amount) {\n        require(\n            isOwner() || allowance[msg.sender] >= amount,\n            \"You are not allowed\"\n        );\n        _;\n    }\n\n    function isOwner() internal view returns (bool) {\n        return msg.sender == owner();\n    }\n\n    function addAllowance(address newUser, uint256 amount) public onlyOwner {\n        allowance[newUser] += amount;\n        emit AllowanceChaged(\n            newUser,\n            allowance[newUser] - amount,\n            allowance[newUser]\n        );\n    }\n\n    function reduceAllowance(address user, uint256 amount) internal {\n        allowance[user] -= amount;\n        emit AllowanceChaged(user, allowance[user] + amount, allowance[user]);\n    }\n\n    function removeAllowance(address user) public onlyOwner {\n        delete allowance[user];\n        emit AllowanceRemoved(user);\n    }\n}\n\ncontract MultiSigWallet is Allowance {\n    event MoneySent(address indexed to, address indexed from, uint256 amount);\n    event MoneyReceived(address indexed from, uint256 amount);\n\n    function transfer(address payable to, uint256 amount)\n        public\n        payable\n        isOwnerOrAllowed(amount)\n    {\n        require(amount <= address(this).balance, \"Not enough funds\");\n        if (!isOwner()) {\n            reduceAllowance(msg.sender, amount);\n        }\n        to.transfer(amount);\n        emit MoneySent(to, msg.sender, amount);\n    }\n\n    function getBalance() public view returns (uint256) {\n        return address(this).balance;\n    }\n\n    function renounceOwnership() public override pure {\n        revert(\"Can't renounce ownership!\");\n    }\n\n    receive() external payable {\n        emit MoneyReceived(msg.sender, msg.value);\n    }\n}\n",
  "sourcePath": "D:\\Projects\\MultiSig-Wallet\\contracts\\MultiSigWallet.sol",
  "compiler": {
    "name": "solc",
    "version": "0.8.10+commit.fc410830.Emscripten.clang"
  },
  "schemaVersion": "3.4.4",
  "updatedAt": "2022-01-06T16:29:13.617Z",
  "devdoc": {
    "kind": "dev",
    "methods": {
      "owner()": {
        "details": "Returns the address of the current owner."
      },
      "renounceOwnership()": {
        "details": "Leaves the contract without owner. It will not be possible to call `onlyOwner` functions anymore. Can only be called by the current owner. NOTE: Renouncing ownership will leave the contract without an owner, thereby removing any functionality that is only available to the owner."
      },
      "transferOwnership(address)": {
        "details": "Transfers ownership of the contract to a new account (`newOwner`). Can only be called by the current owner."
      }
    },
    "version": 1
  },
  "userdoc": {
    "kind": "user",
    "methods": {},
    "version": 1
  }
}