{
  "contractName": "MultiSigWallet",
  "abi": [
    {
      "anonymous": false,
      "inputs": [
        {
          "indexed": true,
          "internalType": "address",
          "name": "to",
          "type": "address"
        },
        {
          "indexed": false,
          "internalType": "uint256",
          "name": "oldAmount",
          "type": "uint256"
        },
        {
          "indexed": false,
          "internalType": "uint256",
          "name": "newAmount",
          "type": "uint256"
        }
      ],
      "name": "AllowanceChaged",
      "type": "event"
    },
    {
      "anonymous": false,
      "inputs": [
        {
          "indexed": true,
          "internalType": "address",
          "name": "user",
          "type": "address"
        }
      ],
      "name": "AllowanceRemoved",
      "type": "event"
    },
    {
      "anonymous": false,
      "inputs": [
        {
          "indexed": true,
          "internalType": "address",
          "name": "from",
          "type": "address"
        },
        {
          "indexed": false,
          "internalType": "uint256",
          "name": "amount",
          "type": "uint256"
        }
      ],
      "name": "MoneyReceived",
      "type": "event"
    },
    {
      "anonymous": false,
      "inputs": [
        {
          "indexed": true,
          "internalType": "address",
          "name": "to",
          "type": "address"
        },
        {
          "indexed": true,
          "internalType": "address",
          "name": "from",
          "type": "address"
        },
        {
          "indexed": false,
          "internalType": "uint256",
          "name": "amount",
          "type": "uint256"
        }
      ],
      "name": "MoneySent",
      "type": "event"
    },
    {
      "anonymous": false,
      "inputs": [
        {
          "indexed": true,
          "internalType": "address",
          "name": "previousOwner",
          "type": "address"
        },
        {
          "indexed": true,
          "internalType": "address",
          "name": "newOwner",
          "type": "address"
        }
      ],
      "name": "OwnershipTransferred",
      "type": "event"
    },
    {
      "inputs": [
        {
          "internalType": "address",
          "name": "newUser",
          "type": "address"
        },
        {
          "internalType": "uint256",
          "name": "amount",
          "type": "uint256"
        }
      ],
      "name": "addAllowance",
      "outputs": [],
      "stateMutability": "nonpayable",
      "type": "function"
    },
    {
      "inputs": [],
      "name": "owner",
      "outputs": [
        {
          "internalType": "address",
          "name": "",
          "type": "address"
        }
      ],
      "stateMutability": "view",
      "type": "function",
      "constant": true
    },
    {
      "inputs": [
        {
          "internalType": "address",
          "name": "user",
          "type": "address"
        }
      ],
      "name": "removeAllowance",
      "outputs": [],
      "stateMutability": "nonpayable",
      "type": "function"
    },
    {
      "inputs": [
        {
          "internalType": "address",
          "name": "newOwner",
          "type": "address"
        }
      ],
      "name": "transferOwnership",
      "outputs": [],
      "stateMutability": "nonpayable",
      "type": "function"
    },
    {
      "stateMutability": "payable",
      "type": "receive",
      "payable": true
    },
    {
      "inputs": [
        {
          "internalType": "address payable",
          "name": "to",
          "type": "address"
        },
        {
          "internalType": "uint256",
          "name": "amount",
          "type": "uint256"
        }
      ],
      "name": "transfer",
      "outputs": [],
      "stateMutability": "payable",
      "type": "function",
      "payable": true
    },
    {
      "inputs": [],
      "name": "getBalance",
      "outputs": [
        {
          "internalType": "uint256",
          "name": "",
          "type": "uint256"
        }
      ],
      "stateMutability": "view",
      "type": "function",
      "constant": true
    },
    {
      "inputs": [],
      "name": "renounceOwnership",
      "outputs": [],
      "stateMutability": "pure",
      "type": "function",
      "constant": true
    }
  ],
  "bytecode": "0x608060405234801561001057600080fd5b5061002d61002261003260201b60201c565b61003a60201b60201c565b6100fe565b600033905090565b60008060009054906101000a900473ffffffffffffffffffffffffffffffffffffffff169050816000806101000a81548173ffffffffffffffffffffffffffffffffffffffff021916908373ffffffffffffffffffffffffffffffffffffffff1602179055508173ffffffffffffffffffffffffffffffffffffffff168173ffffffffffffffffffffffffffffffffffffffff167f8be0079c531659141344cd1fd0a4f28419497f9722a3daafe3b4186f6b6457e060405160405180910390a35050565b610f068061010d6000396000f3fe6080604052600436106100745760003560e01c80638da5cb5b1161004e5780638da5cb5b14610139578063a9059cbb14610164578063f2fde38b14610180578063f3c40c4b146101a9576100c9565b806312065fe0146100ce578063715018a6146100f95780638af86cfa14610110576100c9565b366100c9573373ffffffffffffffffffffffffffffffffffffffff167f27b15ed4cf832749ed39f33a64e4707ed60a761485e41ffec7343ecaddc0c02a346040516100bf91906109dc565b60405180910390a2005b600080fd5b3480156100da57600080fd5b506100e36101d2565b6040516100f091906109dc565b60405180910390f35b34801561010557600080fd5b5061010e6101da565b005b34801561011c57600080fd5b5061013760048036038101906101329190610a5a565b610215565b005b34801561014557600080fd5b5061014e61031a565b60405161015b9190610a96565b60405180910390f35b61017e60048036038101906101799190610b1b565b610343565b005b34801561018c57600080fd5b506101a760048036038101906101a29190610a5a565b6104e0565b005b3480156101b557600080fd5b506101d060048036038101906101cb9190610b5b565b6105d8565b005b600047905090565b6040517f08c379a000000000000000000000000000000000000000000000000000000000815260040161020c90610bf8565b60405180910390fd5b61021d610787565b73ffffffffffffffffffffffffffffffffffffffff1661023b61031a565b73ffffffffffffffffffffffffffffffffffffffff1614610291576040517f08c379a000000000000000000000000000000000000000000000000000000000815260040161028890610c64565b60405180910390fd5b600160008273ffffffffffffffffffffffffffffffffffffffff1673ffffffffffffffffffffffffffffffffffffffff168152602001908152602001600020600090558073ffffffffffffffffffffffffffffffffffffffff167f7de497603c764b359ceb3c7c4f5519836410e3921f417efd781009722081934f60405160405180910390a250565b60008060009054906101000a900473ffffffffffffffffffffffffffffffffffffffff16905090565b8061034c61078f565b80610396575080600160003373ffffffffffffffffffffffffffffffffffffffff1673ffffffffffffffffffffffffffffffffffffffff1681526020019081526020016000205410155b6103d5576040517f08c379a00000000000000000000000000000000000000000000000000000000081526004016103cc90610cd0565b60405180910390fd5b47821115610418576040517f08c379a000000000000000000000000000000000000000000000000000000000815260040161040f90610d3c565b60405180910390fd5b61042061078f565b61042f5761042e33836107cc565b5b8273ffffffffffffffffffffffffffffffffffffffff166108fc839081150290604051600060405180830381858888f19350505050158015610475573d6000803e3d6000fd5b503373ffffffffffffffffffffffffffffffffffffffff168373ffffffffffffffffffffffffffffffffffffffff167fbc8f5a5cb90bc33d83a08f0663beb02c65e4c51522ef0c8230d36370088a0a19846040516104d391906109dc565b60405180910390a3505050565b6104e8610787565b73ffffffffffffffffffffffffffffffffffffffff1661050661031a565b73ffffffffffffffffffffffffffffffffffffffff161461055c576040517f08c379a000000000000000000000000000000000000000000000000000000000815260040161055390610c64565b60405180910390fd5b600073ffffffffffffffffffffffffffffffffffffffff168173ffffffffffffffffffffffffffffffffffffffff1614156105cc576040517f08c379a00000000000000000000000000000000000000000000000000000000081526004016105c390610dce565b60405180910390fd5b6105d5816108ff565b50565b6105e0610787565b73ffffffffffffffffffffffffffffffffffffffff166105fe61031a565b73ffffffffffffffffffffffffffffffffffffffff1614610654576040517f08c379a000000000000000000000000000000000000000000000000000000000815260040161064b90610c64565b60405180910390fd5b80600160008473ffffffffffffffffffffffffffffffffffffffff1673ffffffffffffffffffffffffffffffffffffffff16815260200190815260200160002060008282546106a39190610e1d565b925050819055508173ffffffffffffffffffffffffffffffffffffffff167ffd06928e179c520b4c7796263043c3bebc4e65c3d2ac5fc944f422323fec85a482600160008673ffffffffffffffffffffffffffffffffffffffff1673ffffffffffffffffffffffffffffffffffffffff1681526020019081526020016000205461072d9190610e73565b600160008673ffffffffffffffffffffffffffffffffffffffff1673ffffffffffffffffffffffffffffffffffffffff1681526020019081526020016000205460405161077b929190610ea7565b60405180910390a25050565b600033905090565b600061079961031a565b73ffffffffffffffffffffffffffffffffffffffff163373ffffffffffffffffffffffffffffffffffffffff1614905090565b80600160008473ffffffffffffffffffffffffffffffffffffffff1673ffffffffffffffffffffffffffffffffffffffff168152602001908152602001600020600082825461081b9190610e73565b925050819055508173ffffffffffffffffffffffffffffffffffffffff167ffd06928e179c520b4c7796263043c3bebc4e65c3d2ac5fc944f422323fec85a482600160008673ffffffffffffffffffffffffffffffffffffffff1673ffffffffffffffffffffffffffffffffffffffff168152602001908152602001600020546108a59190610e1d565b600160008673ffffffffffffffffffffffffffffffffffffffff1673ffffffffffffffffffffffffffffffffffffffff168152602001908152602001600020546040516108f3929190610ea7565b60405180910390a25050565b60008060009054906101000a900473ffffffffffffffffffffffffffffffffffffffff169050816000806101000a81548173ffffffffffffffffffffffffffffffffffffffff021916908373ffffffffffffffffffffffffffffffffffffffff1602179055508173ffffffffffffffffffffffffffffffffffffffff168173ffffffffffffffffffffffffffffffffffffffff167f8be0079c531659141344cd1fd0a4f28419497f9722a3daafe3b4186f6b6457e060405160405180910390a35050565b6000819050919050565b6109d6816109c3565b82525050565b60006020820190506109f160008301846109cd565b92915050565b600080fd5b600073ffffffffffffffffffffffffffffffffffffffff82169050919050565b6000610a27826109fc565b9050919050565b610a3781610a1c565b8114610a4257600080fd5b50565b600081359050610a5481610a2e565b92915050565b600060208284031215610a7057610a6f6109f7565b5b6000610a7e84828501610a45565b91505092915050565b610a9081610a1c565b82525050565b6000602082019050610aab6000830184610a87565b92915050565b6000610abc826109fc565b9050919050565b610acc81610ab1565b8114610ad757600080fd5b50565b600081359050610ae981610ac3565b92915050565b610af8816109c3565b8114610b0357600080fd5b50565b600081359050610b1581610aef565b92915050565b60008060408385031215610b3257610b316109f7565b5b6000610b4085828601610ada565b9250506020610b5185828601610b06565b9150509250929050565b60008060408385031215610b7257610b716109f7565b5b6000610b8085828601610a45565b9250506020610b9185828601610b06565b9150509250929050565b600082825260208201905092915050565b7f43616e27742072656e6f756e6365206f776e6572736869702100000000000000600082015250565b6000610be2601983610b9b565b9150610bed82610bac565b602082019050919050565b60006020820190508181036000830152610c1181610bd5565b9050919050565b7f4f776e61626c653a2063616c6c6572206973206e6f7420746865206f776e6572600082015250565b6000610c4e602083610b9b565b9150610c5982610c18565b602082019050919050565b60006020820190508181036000830152610c7d81610c41565b9050919050565b7f596f7520617265206e6f7420616c6c6f77656400000000000000000000000000600082015250565b6000610cba601383610b9b565b9150610cc582610c84565b602082019050919050565b60006020820190508181036000830152610ce981610cad565b9050919050565b7f4e6f7420656e6f7567682066756e647300000000000000000000000000000000600082015250565b6000610d26601083610b9b565b9150610d3182610cf0565b602082019050919050565b60006020820190508181036000830152610d5581610d19565b9050919050565b7f4f776e61626c653a206e6577206f776e657220697320746865207a65726f206160008201527f6464726573730000000000000000000000000000000000000000000000000000602082015250565b6000610db8602683610b9b565b9150610dc382610d5c565b604082019050919050565b60006020820190508181036000830152610de781610dab565b9050919050565b7f4e487b7100000000000000000000000000000000000000000000000000000000600052601160045260246000fd5b6000610e28826109c3565b9150610e33836109c3565b9250827fffffffffffffffffffffffffffffffffffffffffffffffffffffffffffffffff03821115610e6857610e67610dee565b5b828201905092915050565b6000610e7e826109c3565b9150610e89836109c3565b925082821015610e9c57610e9b610dee565b5b828203905092915050565b6000604082019050610ebc60008301856109cd565b610ec960208301846109cd565b939250505056fea2646970667358221220d4040763180ac6991c75e23477919a3a37d3dff40fd77df447dfadabb57b24e164736f6c634300080a0033",
  "immutableReferences": {},
  "source": "// SPDX-License-Identifier: MIT\npragma solidity ^0.8.0;\n\nimport \"@openzeppelin/contracts/access/Ownable.sol\";\n\ncontract Allowance is Ownable {\n    mapping(address => uint256) allowance;\n    event AllowanceChaged(\n        address indexed to,\n        uint256 oldAmount,\n        uint256 newAmount\n    );\n    event AllowanceRemoved(address indexed user);\n\n    modifier isOwnerOrAllowed(uint256 amount) {\n        require(\n            isOwner() || allowance[msg.sender] >= amount,\n            \"You are not allowed\"\n        );\n        _;\n    }\n\n    function isOwner() internal view returns (bool) {\n        return msg.sender == owner();\n    }\n\n    function addAllowance(address newUser, uint256 amount) public onlyOwner {\n        allowance[newUser] += amount;\n        emit AllowanceChaged(\n            newUser,\n            allowance[newUser] - amount,\n            allowance[newUser]\n        );\n    }\n\n    function reduceAllowance(address user, uint256 amount) internal {\n        allowance[user] -= amount;\n        emit AllowanceChaged(user, allowance[user] + amount, allowance[user]);\n    }\n\n    function removeAllowance(address user) public onlyOwner {\n        delete allowance[user];\n        emit AllowanceRemoved(user);\n    }\n}\n\ncontract MultiSigWallet is Allowance {\n    event MoneySent(address indexed to, address indexed from, uint256 amount);\n    event MoneyReceived(address indexed from, uint256 amount);\n\n    function transfer(address payable to, uint256 amount)\n        public\n        payable\n        isOwnerOrAllowed(amount)\n    {\n        require(amount <= address(this).balance, \"Not enough funds\");\n        if (!isOwner()) {\n            reduceAllowance(msg.sender, amount);\n        }\n        to.transfer(amount);\n        emit MoneySent(to, msg.sender, amount);\n    }\n\n    function getBalance() public view returns (uint256) {\n        return address(this).balance;\n    }\n\n    function renounceOwnership() public override pure {\n        revert(\"Can't renounce ownership!\");\n    }\n\n    receive() external payable {\n        emit MoneyReceived(msg.sender, msg.value);\n    }\n}\n",
  "sourcePath": "D:\\Projects\\MultiSig-Wallet\\contracts\\MultiSigWallet.sol",
  "compiler": {
    "name": "solc",
    "version": "0.8.10+commit.fc410830.Emscripten.clang"
  },
  "schemaVersion": "3.4.4",
  "updatedAt": "2022-01-06T16:30:02.621Z",
  "networkType": "ethereum",
  "devdoc": {
    "kind": "dev",
    "methods": {
      "owner()": {
        "details": "Returns the address of the current owner."
      },
      "renounceOwnership()": {
        "details": "Leaves the contract without owner. It will not be possible to call `onlyOwner` functions anymore. Can only be called by the current owner. NOTE: Renouncing ownership will leave the contract without an owner, thereby removing any functionality that is only available to the owner."
      },
      "transferOwnership(address)": {
        "details": "Transfers ownership of the contract to a new account (`newOwner`). Can only be called by the current owner."
      }
    },
    "version": 1
  },
  "userdoc": {
    "kind": "user",
    "methods": {},
    "version": 1
  }
}